{
  "_format": "hh-sol-artifact-1",
  "contractName": "PredictBTC",
  "sourceName": "contracts/PredictBTC.sol",
  "abi": [
    {
      "inputs": [],
      "stateMutability": "nonpayable",
      "type": "constructor"
    },
    {
      "anonymous": false,
      "inputs": [
        {
          "indexed": true,
          "internalType": "address",
          "name": "owner",
          "type": "address"
        },
        {
          "indexed": true,
          "internalType": "address",
          "name": "spender",
          "type": "address"
        },
        {
          "indexed": false,
          "internalType": "uint256",
          "name": "value",
          "type": "uint256"
        }
      ],
      "name": "Approval",
      "type": "event"
    },
    {
      "anonymous": false,
      "inputs": [
        {
          "indexed": true,
          "internalType": "address",
          "name": "from",
          "type": "address"
        },
        {
          "indexed": true,
          "internalType": "address",
          "name": "to",
          "type": "address"
        },
        {
          "indexed": false,
          "internalType": "uint256",
          "name": "value",
          "type": "uint256"
        }
      ],
      "name": "Transfer",
      "type": "event"
    },
    {
      "inputs": [],
      "name": "BTCprice",
      "outputs": [
        {
          "internalType": "int256",
          "name": "",
          "type": "int256"
        }
      ],
      "stateMutability": "view",
      "type": "function"
    },
    {
      "inputs": [
        {
          "internalType": "address",
          "name": "owner",
          "type": "address"
        },
        {
          "internalType": "address",
          "name": "spender",
          "type": "address"
        }
      ],
      "name": "allowance",
      "outputs": [
        {
          "internalType": "uint256",
          "name": "",
          "type": "uint256"
        }
      ],
      "stateMutability": "view",
      "type": "function"
    },
    {
      "inputs": [
        {
          "internalType": "address",
          "name": "spender",
          "type": "address"
        },
        {
          "internalType": "uint256",
          "name": "amount",
          "type": "uint256"
        }
      ],
      "name": "approve",
      "outputs": [
        {
          "internalType": "bool",
          "name": "",
          "type": "bool"
        }
      ],
      "stateMutability": "nonpayable",
      "type": "function"
    },
    {
      "inputs": [],
      "name": "avg1",
      "outputs": [
        {
          "internalType": "int256",
          "name": "",
          "type": "int256"
        }
      ],
      "stateMutability": "view",
      "type": "function"
    },
    {
      "inputs": [],
      "name": "avg2",
      "outputs": [
        {
          "internalType": "int256",
          "name": "",
          "type": "int256"
        }
      ],
      "stateMutability": "view",
      "type": "function"
    },
    {
      "inputs": [
        {
          "internalType": "address",
          "name": "account",
          "type": "address"
        }
      ],
      "name": "balanceOf",
      "outputs": [
        {
          "internalType": "uint256",
          "name": "",
          "type": "uint256"
        }
      ],
      "stateMutability": "view",
      "type": "function"
    },
    {
      "inputs": [
        {
          "internalType": "int256",
          "name": "a",
          "type": "int256"
        },
        {
          "internalType": "int256",
          "name": "b",
          "type": "int256"
        }
      ],
      "name": "calculate",
      "outputs": [
        {
          "internalType": "uint256",
          "name": "",
          "type": "uint256"
        }
      ],
      "stateMutability": "pure",
      "type": "function"
    },
    {
      "inputs": [],
      "name": "deadline",
      "outputs": [],
      "stateMutability": "nonpayable",
      "type": "function"
    },
    {
      "inputs": [],
      "name": "deadline_time",
      "outputs": [
        {
          "internalType": "uint256",
          "name": "",
          "type": "uint256"
        }
      ],
      "stateMutability": "view",
      "type": "function"
    },
    {
      "inputs": [],
      "name": "decimals",
      "outputs": [
        {
          "internalType": "uint8",
          "name": "",
          "type": "uint8"
        }
      ],
      "stateMutability": "view",
      "type": "function"
    },
    {
      "inputs": [
        {
          "internalType": "address",
          "name": "spender",
          "type": "address"
        },
        {
          "internalType": "uint256",
          "name": "subtractedValue",
          "type": "uint256"
        }
      ],
      "name": "decreaseAllowance",
      "outputs": [
        {
          "internalType": "bool",
          "name": "",
          "type": "bool"
        }
      ],
      "stateMutability": "nonpayable",
      "type": "function"
    },
    {
      "inputs": [],
      "name": "getLatestBtcJpyPrice",
      "outputs": [
        {
          "internalType": "int256",
          "name": "",
          "type": "int256"
        }
      ],
      "stateMutability": "view",
      "type": "function"
    },
    {
      "inputs": [],
      "name": "getLatestBtcUsdPrice",
      "outputs": [
        {
          "internalType": "int256",
          "name": "",
          "type": "int256"
        }
      ],
      "stateMutability": "view",
      "type": "function"
    },
    {
      "inputs": [],
      "name": "getLatestJpyUsdPrice",
      "outputs": [
        {
          "internalType": "int256",
          "name": "",
          "type": "int256"
        }
      ],
      "stateMutability": "view",
      "type": "function"
    },
    {
      "inputs": [
        {
          "internalType": "address",
          "name": "spender",
          "type": "address"
        },
        {
          "internalType": "uint256",
          "name": "addedValue",
          "type": "uint256"
        }
      ],
      "name": "increaseAllowance",
      "outputs": [
        {
          "internalType": "bool",
          "name": "",
          "type": "bool"
        }
      ],
      "stateMutability": "nonpayable",
      "type": "function"
    },
    {
      "inputs": [],
      "name": "index1",
      "outputs": [
        {
          "internalType": "uint256",
          "name": "",
          "type": "uint256"
        }
      ],
      "stateMutability": "view",
      "type": "function"
    },
    {
      "inputs": [],
      "name": "index2",
      "outputs": [
        {
          "internalType": "uint256",
          "name": "",
          "type": "uint256"
        }
      ],
      "stateMutability": "view",
      "type": "function"
    },
    {
      "inputs": [],
      "name": "name",
      "outputs": [
        {
          "internalType": "string",
          "name": "",
          "type": "string"
        }
      ],
      "stateMutability": "view",
      "type": "function"
    },
    {
      "inputs": [
        {
          "internalType": "int256",
          "name": "_price",
          "type": "int256"
        }
      ],
      "name": "play",
      "outputs": [],
      "stateMutability": "payable",
      "type": "function"
    },
    {
      "inputs": [],
      "name": "rotation",
      "outputs": [
        {
          "internalType": "bool",
          "name": "",
          "type": "bool"
        }
      ],
      "stateMutability": "view",
      "type": "function"
    },
    {
      "inputs": [],
      "name": "snapshot",
      "outputs": [],
      "stateMutability": "nonpayable",
      "type": "function"
    },
    {
      "inputs": [],
      "name": "snapshot_time",
      "outputs": [
        {
          "internalType": "uint256",
          "name": "",
          "type": "uint256"
        }
      ],
      "stateMutability": "view",
      "type": "function"
    },
    {
      "inputs": [],
      "name": "symbol",
      "outputs": [
        {
          "internalType": "string",
          "name": "",
          "type": "string"
        }
      ],
      "stateMutability": "view",
      "type": "function"
    },
    {
      "inputs": [],
      "name": "totalSupply",
      "outputs": [
        {
          "internalType": "uint256",
          "name": "",
          "type": "uint256"
        }
      ],
      "stateMutability": "view",
      "type": "function"
    },
    {
      "inputs": [
        {
          "internalType": "address",
          "name": "recipient",
          "type": "address"
        },
        {
          "internalType": "uint256",
          "name": "amount",
          "type": "uint256"
        }
      ],
      "name": "transfer",
      "outputs": [
        {
          "internalType": "bool",
          "name": "",
          "type": "bool"
        }
      ],
      "stateMutability": "nonpayable",
      "type": "function"
    },
    {
      "inputs": [
        {
          "internalType": "address",
          "name": "sender",
          "type": "address"
        },
        {
          "internalType": "address",
          "name": "recipient",
          "type": "address"
        },
        {
          "internalType": "uint256",
          "name": "amount",
          "type": "uint256"
        }
      ],
      "name": "transferFrom",
      "outputs": [
        {
          "internalType": "bool",
          "name": "",
          "type": "bool"
        }
      ],
      "stateMutability": "nonpayable",
      "type": "function"
    }
  ],
  "bytecode": "0x60806040523480156200001157600080fd5b506040518060400160405280601381526020017f50726564696374426974636f696e546f6b656e000000000000000000000000008152506040518060400160405280600381526020017f5042540000000000000000000000000000000000000000000000000000000000815250816003908051906020019062000096929190620001d3565b508060049080519060200190620000af929190620001d3565b50505060006005819055506001600760146101000a81548160ff021916908315150217905550600060088190555060006009819055506000600a819055506000600b8190555062093a804262000106919062000283565b60128190555062127500426200011d919062000283565b60138190555073ece365b379e1dd183b20fc5f022230c044d51404600660006101000a81548173ffffffffffffffffffffffffffffffffffffffff021916908373ffffffffffffffffffffffffffffffffffffffff160217905550733ae2f46a2d84e3d5590ee6ee5116b80caf77deca600760006101000a81548173ffffffffffffffffffffffffffffffffffffffff021916908373ffffffffffffffffffffffffffffffffffffffff1602179055506200037e565b828054620001e190620002ea565b90600052602060002090601f01602090048101928262000205576000855562000251565b82601f106200022057805160ff191683800117855562000251565b8280016001018555821562000251579182015b828111156200025057825182559160200191906001019062000233565b5b50905062000260919062000264565b5090565b5b808211156200027f57600081600090555060010162000265565b5090565b60006200029082620002e0565b91506200029d83620002e0565b9250827fffffffffffffffffffffffffffffffffffffffffffffffffffffffffffffffff03821115620002d557620002d462000320565b5b828201905092915050565b6000819050919050565b600060028204905060018216806200030357607f821691505b602082108114156200031a57620003196200034f565b5b50919050565b7f4e487b7100000000000000000000000000000000000000000000000000000000600052601160045260246000fd5b7f4e487b7100000000000000000000000000000000000000000000000000000000600052602260045260246000fd5b6127cd806200038e6000396000f3fe6080604052600436106101815760003560e01c8063860b7593116100d1578063a97be9961161008a578063dd62ed3e11610064578063dd62ed3e1461057f578063efbca4d9146105bc578063f6518511146105e7578063fdd6de201461061257610181565b8063a97be996146104fe578063bda39cad14610529578063bfdb0ccc1461055457610181565b8063860b7593146103ec578063882ed23d1461041757806395d89b41146104425780639711715a1461046d578063a457c2d714610484578063a9059cbb146104c157610181565b806329dcb0cf1161013e5780634148b28e116101185780634148b28e1461032b57806370a08231146103565780637313781914610393578063799e6f02146103af57610181565b806329dcb0cf146102ac578063313ce567146102c357806339509351146102ee57610181565b806306fdde0314610186578063095ea7b3146101b157806318160ddd146101ee5780631d2ba00b14610219578063238b36641461024457806323b872dd1461026f575b600080fd5b34801561019257600080fd5b5061019b61063d565b6040516101a89190611e1c565b60405180910390f35b3480156101bd57600080fd5b506101d860048036038101906101d39190611b49565b6106cf565b6040516101e59190611de6565b60405180910390f35b3480156101fa57600080fd5b506102036106ed565b6040516102109190611f7e565b60405180910390f35b34801561022557600080fd5b5061022e6106f7565b60405161023b9190611f7e565b60405180910390f35b34801561025057600080fd5b506102596106fd565b6040516102669190611e01565b60405180910390f35b34801561027b57600080fd5b5061029660048036038101906102919190611afa565b610729565b6040516102a39190611de6565b60405180910390f35b3480156102b857600080fd5b506102c1610821565b005b3480156102cf57600080fd5b506102d86108b4565b6040516102e59190611f99565b60405180910390f35b3480156102fa57600080fd5b5061031560048036038101906103109190611b49565b6108bd565b6040516103229190611de6565b60405180910390f35b34801561033757600080fd5b50610340610969565b60405161034d9190611f7e565b60405180910390f35b34801561036257600080fd5b5061037d60048036038101906103789190611a95565b61096f565b60405161038a9190611f7e565b60405180910390f35b6103ad60048036038101906103a89190611b85565b6109b7565b005b3480156103bb57600080fd5b506103d660048036038101906103d19190611bd7565b610d2b565b6040516103e39190611f7e565b60405180910390f35b3480156103f857600080fd5b50610401610e01565b60405161040e9190611e01565b60405180910390f35b34801561042357600080fd5b5061042c610e07565b6040516104399190611e01565b60405180910390f35b34801561044e57600080fd5b50610457610e0d565b6040516104649190611e1c565b60405180910390f35b34801561047957600080fd5b50610482610e9f565b005b34801561049057600080fd5b506104ab60048036038101906104a69190611b49565b610f58565b6040516104b89190611de6565b60405180910390f35b3480156104cd57600080fd5b506104e860048036038101906104e39190611b49565b611043565b6040516104f59190611de6565b60405180910390f35b34801561050a57600080fd5b50610513611061565b6040516105209190611e01565b60405180910390f35b34801561053557600080fd5b5061053e611108565b60405161054b9190611f7e565b60405180910390f35b34801561056057600080fd5b5061056961110e565b6040516105769190611e01565b60405180910390f35b34801561058b57600080fd5b506105a660048036038101906105a19190611abe565b6111b5565b6040516105b39190611f7e565b60405180910390f35b3480156105c857600080fd5b506105d161123c565b6040516105de9190611de6565b60405180910390f35b3480156105f357600080fd5b506105fc61124f565b6040516106099190611f7e565b60405180910390f35b34801561061e57600080fd5b50610627611255565b6040516106349190611e01565b60405180910390f35b60606003805461064c90612395565b80601f016020809104026020016040519081016040528092919081815260200182805461067890612395565b80156106c55780601f1061069a576101008083540402835291602001916106c5565b820191906000526020600020905b8154815290600101906020018083116106a857829003601f168201915b5050505050905090565b60006106e36106dc61125b565b8484611263565b6001905092915050565b6000600254905090565b600b5481565b600080610708611061565b9050600061071461110e565b9050808261072291906120ba565b9250505090565b600061073684848461142e565b6000600160008673ffffffffffffffffffffffffffffffffffffffff1673ffffffffffffffffffffffffffffffffffffffff168152602001908152602001600020600061078161125b565b73ffffffffffffffffffffffffffffffffffffffff1673ffffffffffffffffffffffffffffffffffffffff16815260200190815260200160002054905082811015610801576040517f08c379a00000000000000000000000000000000000000000000000000000000081526004016107f890611ede565b60405180910390fd5b6108158561080d61125b565b858403611263565b60019150509392505050565b6012544211610865576040517f08c379a000000000000000000000000000000000000000000000000000000000815260040161085c90611ebe565b60405180910390fd5b62093a806012546108769190612064565b601281905550610888336103e86116af565b600760149054906101000a900460ff1615600760146101000a81548160ff021916908315150217905550565b60006012905090565b600061095f6108ca61125b565b8484600160006108d861125b565b73ffffffffffffffffffffffffffffffffffffffff1673ffffffffffffffffffffffffffffffffffffffff16815260200190815260200160002060008873ffffffffffffffffffffffffffffffffffffffff1673ffffffffffffffffffffffffffffffffffffffff1681526020019081526020016000205461095a9190612064565b611263565b6001905092915050565b60125481565b60008060008373ffffffffffffffffffffffffffffffffffffffff1673ffffffffffffffffffffffffffffffffffffffff168152602001908152602001600020549050919050565b600760149054906101000a900460ff1615610b7c5760001515600c60003373ffffffffffffffffffffffffffffffffffffffff1673ffffffffffffffffffffffffffffffffffffffff16815260200190815260200160002060009054906101000a900460ff16151514610a5f576040517f08c379a0000000000000000000000000000000000000000000000000000000008152600401610a5690611e9e565b60405180910390fd5b6001600c60003373ffffffffffffffffffffffffffffffffffffffff1673ffffffffffffffffffffffffffffffffffffffff16815260200190815260200160002060006101000a81548160ff021916908315150217905550600a6000815480929190610aca906123c7565b919050555033600e6000600a54815260200190815260200160002060006101000a81548173ffffffffffffffffffffffffffffffffffffffff021916908373ffffffffffffffffffffffffffffffffffffffff1602179055508060106000600a54815260200190815260200160002081905550600a54816001600a54610b5091906122cf565b600854610b5d9190612124565b610b679190611fd0565b610b7191906120ba565b600881905550610d28565b60001515600d60003373ffffffffffffffffffffffffffffffffffffffff1673ffffffffffffffffffffffffffffffffffffffff16815260200190815260200160002060009054906101000a900460ff16151514610c0f576040517f08c379a0000000000000000000000000000000000000000000000000000000008152600401610c0690611e9e565b60405180910390fd5b6001600d60003373ffffffffffffffffffffffffffffffffffffffff1673ffffffffffffffffffffffffffffffffffffffff16815260200190815260200160002060006101000a81548160ff021916908315150217905550600b6000815480929190610c7a906123c7565b919050555033600f6000600b54815260200190815260200160002060006101000a81548173ffffffffffffffffffffffffffffffffffffffff021916908373ffffffffffffffffffffffffffffffffffffffff1602179055508060116000600b54815260200190815260200160002081905550600b54816001600b54610d0091906122cf565b600954610d0d9190612124565b610d179190611fd0565b610d2191906120ba565b6009819055505b50565b6000806000838512610d6257846103e88587610d47919061223b565b610d519190612124565b610d5b91906120ba565b9150610d89565b846103e88686610d72919061223b565b610d7c9190612124565b610d8691906120ba565b91505b6000905060c8821015610d9c576101f490505b6064821015610dab576103e890505b6050821015610dba576107d090505b6032821015610dc95761138890505b601e821015610dd85761271090505b600a821015610de757614e2090505b6001821015610df65761c35090505b809250505092915050565b60085481565b60055481565b606060048054610e1c90612395565b80601f0160208091040260200160405190810160405280929190818152602001828054610e4890612395565b8015610e955780601f10610e6a57610100808354040283529160200191610e95565b820191906000526020600020905b815481529060010190602001808311610e7857829003601f168201915b5050505050905090565b6013544211610ee3576040517f08c379a0000000000000000000000000000000000000000000000000000000008152600401610eda90611ebe565b60405180910390fd5b62093a80601354610ef49190612064565b601381905550610f06336103e86116af565b600760149054906101000a900460ff16610f2f576000600a819055506000600881905550610f40565b6000600b8190555060006009819055505b610f486106fd565b600581905550610f5661180f565b565b60008060016000610f6761125b565b73ffffffffffffffffffffffffffffffffffffffff1673ffffffffffffffffffffffffffffffffffffffff16815260200190815260200160002060008573ffffffffffffffffffffffffffffffffffffffff1673ffffffffffffffffffffffffffffffffffffffff16815260200190815260200160002054905082811015611024576040517f08c379a000000000000000000000000000000000000000000000000000000000815260040161101b90611f3e565b60405180910390fd5b61103861102f61125b565b85858403611263565b600191505092915050565b600061105761105061125b565b848461142e565b6001905092915050565b6000600660009054906101000a900473ffffffffffffffffffffffffffffffffffffffff1673ffffffffffffffffffffffffffffffffffffffff166350d25bcd6040518163ffffffff1660e01b815260040160206040518083038186803b1580156110cb57600080fd5b505afa1580156110df573d6000803e3d6000fd5b505050506040513d601f19601f820116820180604052508101906111039190611bae565b905090565b600a5481565b6000600760009054906101000a900473ffffffffffffffffffffffffffffffffffffffff1673ffffffffffffffffffffffffffffffffffffffff166350d25bcd6040518163ffffffff1660e01b815260040160206040518083038186803b15801561117857600080fd5b505afa15801561118c573d6000803e3d6000fd5b505050506040513d601f19601f820116820180604052508101906111b09190611bae565b905090565b6000600160008473ffffffffffffffffffffffffffffffffffffffff1673ffffffffffffffffffffffffffffffffffffffff16815260200190815260200160002060008373ffffffffffffffffffffffffffffffffffffffff1673ffffffffffffffffffffffffffffffffffffffff16815260200190815260200160002054905092915050565b600760149054906101000a900460ff1681565b60135481565b60095481565b600033905090565b600073ffffffffffffffffffffffffffffffffffffffff168373ffffffffffffffffffffffffffffffffffffffff1614156112d3576040517f08c379a00000000000000000000000000000000000000000000000000000000081526004016112ca90611f1e565b60405180910390fd5b600073ffffffffffffffffffffffffffffffffffffffff168273ffffffffffffffffffffffffffffffffffffffff161415611343576040517f08c379a000000000000000000000000000000000000000000000000000000000815260040161133a90611e5e565b60405180910390fd5b80600160008573ffffffffffffffffffffffffffffffffffffffff1673ffffffffffffffffffffffffffffffffffffffff16815260200190815260200160002060008473ffffffffffffffffffffffffffffffffffffffff1673ffffffffffffffffffffffffffffffffffffffff168152602001908152602001600020819055508173ffffffffffffffffffffffffffffffffffffffff168373ffffffffffffffffffffffffffffffffffffffff167f8c5be1e5ebec7d5bd14f71427d1e84f3dd0314c0f7b2291e5b200ac8c7c3b925836040516114219190611f7e565b60405180910390a3505050565b600073ffffffffffffffffffffffffffffffffffffffff168373ffffffffffffffffffffffffffffffffffffffff16141561149e576040517f08c379a000000000000000000000000000000000000000000000000000000000815260040161149590611efe565b60405180910390fd5b600073ffffffffffffffffffffffffffffffffffffffff168273ffffffffffffffffffffffffffffffffffffffff16141561150e576040517f08c379a000000000000000000000000000000000000000000000000000000000815260040161150590611e3e565b60405180910390fd5b611519838383611a37565b60008060008573ffffffffffffffffffffffffffffffffffffffff1673ffffffffffffffffffffffffffffffffffffffff1681526020019081526020016000205490508181101561159f576040517f08c379a000000000000000000000000000000000000000000000000000000000815260040161159690611e7e565b60405180910390fd5b8181036000808673ffffffffffffffffffffffffffffffffffffffff1673ffffffffffffffffffffffffffffffffffffffff16815260200190815260200160002081905550816000808573ffffffffffffffffffffffffffffffffffffffff1673ffffffffffffffffffffffffffffffffffffffff16815260200190815260200160002060008282546116329190612064565b925050819055508273ffffffffffffffffffffffffffffffffffffffff168473ffffffffffffffffffffffffffffffffffffffff167fddf252ad1be2c89b69c2b068fc378daa952ba7f163c4a11628f55a4df523b3ef846040516116969190611f7e565b60405180910390a36116a9848484611a3c565b50505050565b600073ffffffffffffffffffffffffffffffffffffffff168273ffffffffffffffffffffffffffffffffffffffff16141561171f576040517f08c379a000000000000000000000000000000000000000000000000000000000815260040161171690611f5e565b60405180910390fd5b61172b60008383611a37565b806002600082825461173d9190612064565b92505081905550806000808473ffffffffffffffffffffffffffffffffffffffff1673ffffffffffffffffffffffffffffffffffffffff16815260200190815260200160002060008282546117929190612064565b925050819055508173ffffffffffffffffffffffffffffffffffffffff16600073ffffffffffffffffffffffffffffffffffffffff167fddf252ad1be2c89b69c2b068fc378daa952ba7f163c4a11628f55a4df523b3ef836040516117f79190611f7e565b60405180910390a361180b60008383611a3c565b5050565b600760149054906101000a900460ff1661192e5760005b600a5481116119285761188a600e600083815260200190815260200160002060009054906101000a900473ffffffffffffffffffffffffffffffffffffffff166118856005546010600086815260200190815260200160002054610d2b565b6116af565b6000600c6000600e600085815260200190815260200160002060009054906101000a900473ffffffffffffffffffffffffffffffffffffffff1673ffffffffffffffffffffffffffffffffffffffff1673ffffffffffffffffffffffffffffffffffffffff16815260200190815260200160002060006101000a81548160ff0219169083151502179055508080611920906123c7565b915050611826565b50611a35565b60005b600b548111611a3357611995600f600083815260200190815260200160002060009054906101000a900473ffffffffffffffffffffffffffffffffffffffff166119906005546011600086815260200190815260200160002054610d2b565b6116af565b6000600d6000600f600085815260200190815260200160002060009054906101000a900473ffffffffffffffffffffffffffffffffffffffff1673ffffffffffffffffffffffffffffffffffffffff1673ffffffffffffffffffffffffffffffffffffffff16815260200190815260200160002060006101000a81548160ff0219169083151502179055508080611a2b906123c7565b915050611931565b505b565b505050565b505050565b600081359050611a5081612752565b92915050565b600081359050611a6581612769565b92915050565b600081519050611a7a81612769565b92915050565b600081359050611a8f81612780565b92915050565b600060208284031215611aa757600080fd5b6000611ab584828501611a41565b91505092915050565b60008060408385031215611ad157600080fd5b6000611adf85828601611a41565b9250506020611af085828601611a41565b9150509250929050565b600080600060608486031215611b0f57600080fd5b6000611b1d86828701611a41565b9350506020611b2e86828701611a41565b9250506040611b3f86828701611a80565b9150509250925092565b60008060408385031215611b5c57600080fd5b6000611b6a85828601611a41565b9250506020611b7b85828601611a80565b9150509250929050565b600060208284031215611b9757600080fd5b6000611ba584828501611a56565b91505092915050565b600060208284031215611bc057600080fd5b6000611bce84828501611a6b565b91505092915050565b60008060408385031215611bea57600080fd5b6000611bf885828601611a56565b9250506020611c0985828601611a56565b9150509250929050565b611c1c81612315565b82525050565b611c2b81612321565b82525050565b6000611c3c82611fb4565b611c468185611fbf565b9350611c56818560208601612362565b611c5f8161249d565b840191505092915050565b6000611c77602383611fbf565b9150611c82826124ae565b604082019050919050565b6000611c9a602283611fbf565b9150611ca5826124fd565b604082019050919050565b6000611cbd602683611fbf565b9150611cc88261254c565b604082019050919050565b6000611ce0600e83611fbf565b9150611ceb8261259b565b602082019050919050565b6000611d03600883611fbf565b9150611d0e826125c4565b602082019050919050565b6000611d26602883611fbf565b9150611d31826125ed565b604082019050919050565b6000611d49602583611fbf565b9150611d548261263c565b604082019050919050565b6000611d6c602483611fbf565b9150611d778261268b565b604082019050919050565b6000611d8f602583611fbf565b9150611d9a826126da565b604082019050919050565b6000611db2601f83611fbf565b9150611dbd82612729565b602082019050919050565b611dd18161234b565b82525050565b611de081612355565b82525050565b6000602082019050611dfb6000830184611c13565b92915050565b6000602082019050611e166000830184611c22565b92915050565b60006020820190508181036000830152611e368184611c31565b905092915050565b60006020820190508181036000830152611e5781611c6a565b9050919050565b60006020820190508181036000830152611e7781611c8d565b9050919050565b60006020820190508181036000830152611e9781611cb0565b9050919050565b60006020820190508181036000830152611eb781611cd3565b9050919050565b60006020820190508181036000830152611ed781611cf6565b9050919050565b60006020820190508181036000830152611ef781611d19565b9050919050565b60006020820190508181036000830152611f1781611d3c565b9050919050565b60006020820190508181036000830152611f3781611d5f565b9050919050565b60006020820190508181036000830152611f5781611d82565b9050919050565b60006020820190508181036000830152611f7781611da5565b9050919050565b6000602082019050611f936000830184611dc8565b92915050565b6000602082019050611fae6000830184611dd7565b92915050565b600081519050919050565b600082825260208201905092915050565b6000611fdb82612321565b9150611fe683612321565b9250817f7fffffffffffffffffffffffffffffffffffffffffffffffffffffffffffffff0383136000831215161561202157612020612410565b5b817f800000000000000000000000000000000000000000000000000000000000000003831260008312161561205957612058612410565b5b828201905092915050565b600061206f8261234b565b915061207a8361234b565b9250827fffffffffffffffffffffffffffffffffffffffffffffffffffffffffffffffff038211156120af576120ae612410565b5b828201905092915050565b60006120c582612321565b91506120d083612321565b9250826120e0576120df61243f565b5b600160000383147f80000000000000000000000000000000000000000000000000000000000000008314161561211957612118612410565b5b828205905092915050565b600061212f82612321565b915061213a83612321565b9250827f7fffffffffffffffffffffffffffffffffffffffffffffffffffffffffffffff048211600084136000841316161561217957612178612410565b5b817f800000000000000000000000000000000000000000000000000000000000000005831260008412600084131616156121b6576121b5612410565b5b827f800000000000000000000000000000000000000000000000000000000000000005821260008413600084121616156121f3576121f2612410565b5b827f7fffffffffffffffffffffffffffffffffffffffffffffffffffffffffffffff05821260008412600084121616156122305761222f612410565b5b828202905092915050565b600061224682612321565b915061225183612321565b9250827f80000000000000000000000000000000000000000000000000000000000000000182126000841215161561228c5761228b612410565b5b827f7fffffffffffffffffffffffffffffffffffffffffffffffffffffffffffffff0182136000841216156122c4576122c3612410565b5b828203905092915050565b60006122da8261234b565b91506122e58361234b565b9250828210156122f8576122f7612410565b5b828203905092915050565b600061230e8261232b565b9050919050565b60008115159050919050565b6000819050919050565b600073ffffffffffffffffffffffffffffffffffffffff82169050919050565b6000819050919050565b600060ff82169050919050565b60005b83811015612380578082015181840152602081019050612365565b8381111561238f576000848401525b50505050565b600060028204905060018216806123ad57607f821691505b602082108114156123c1576123c061246e565b5b50919050565b60006123d28261234b565b91507fffffffffffffffffffffffffffffffffffffffffffffffffffffffffffffffff82141561240557612404612410565b5b600182019050919050565b7f4e487b7100000000000000000000000000000000000000000000000000000000600052601160045260246000fd5b7f4e487b7100000000000000000000000000000000000000000000000000000000600052601260045260246000fd5b7f4e487b7100000000000000000000000000000000000000000000000000000000600052602260045260246000fd5b6000601f19601f8301169050919050565b7f45524332303a207472616e7366657220746f20746865207a65726f206164647260008201527f6573730000000000000000000000000000000000000000000000000000000000602082015250565b7f45524332303a20617070726f766520746f20746865207a65726f20616464726560008201527f7373000000000000000000000000000000000000000000000000000000000000602082015250565b7f45524332303a207472616e7366657220616d6f756e742065786365656473206260008201527f616c616e63650000000000000000000000000000000000000000000000000000602082015250565b7f616c726561647920706c61796564000000000000000000000000000000000000600082015250565b7f746f6f2065617279000000000000000000000000000000000000000000000000600082015250565b7f45524332303a207472616e7366657220616d6f756e742065786365656473206160008201527f6c6c6f77616e6365000000000000000000000000000000000000000000000000602082015250565b7f45524332303a207472616e736665722066726f6d20746865207a65726f20616460008201527f6472657373000000000000000000000000000000000000000000000000000000602082015250565b7f45524332303a20617070726f76652066726f6d20746865207a65726f2061646460008201527f7265737300000000000000000000000000000000000000000000000000000000602082015250565b7f45524332303a2064656372656173656420616c6c6f77616e63652062656c6f7760008201527f207a65726f000000000000000000000000000000000000000000000000000000602082015250565b7f45524332303a206d696e7420746f20746865207a65726f206164647265737300600082015250565b61275b81612303565b811461276657600080fd5b50565b61277281612321565b811461277d57600080fd5b50565b6127898161234b565b811461279457600080fd5b5056fea264697066735822122050fd69f49aa1f4e172eea5ae3dba6cfb0766f42488921a1942584f94b417f1aa64736f6c63430008040033",
  "linkReferences": {},
  "deployedLinkReferences": {}
}